:100000000C942A000C9447000C9447000C94470071
:100010000C9447000C9447000C9447000C94A519CD
:100020000C9447000C94D8190C9447000C9447008A
:100030000C9447000C9447000C9447000C94470024
:100040000C9447000C9447000C9447000C94470014
:100050000C94470011241FBECFE5D8E0DEBFCDBF12
:1000600012E0A0E6B0E0EAE0F9E302C005900D92EC
:10007000AC36B107D9F712E0ACE6B2E001C01D9290
:10008000AA37B107E1F70E9417070C94831C0C9460
:100090000000EF92FF920F931F937B018C0120E0F1
:1000A00030E040E05FE40E94F50388238CF0C80153
:1000B000B70120E030E040E05FE40E94C1010E940F
:1000C00055049B01AC01205030404040504806C0D0
:1000D000C801B7010E9455049B01AC01B901CA01D6
:1000E0001F910F91FF90EF900895A0E0B0E0EBE733
:1000F000F0E00C94071CDC012B01FA019C9192307A
:1001000008F439C1EB018881823008F433C194309E
:1001100069F4843009F02FC111969C91119789815F
:10012000981709F428C1A6E5B1E025C1843009F487
:1001300021C18230A9F4923009F01DC19A01AD01AC
:1001400088E0EA010990AE01E90109929E0181501F
:10015000C1F7E201898111969C918923818308C1AD
:10016000923009F407C112962D903C901397EB0141
:100170008A819B811496AD90BD90CD90DC901797AD
:10018000EC80FD800E811F819101281B390BB90184
:1001900037FF04C066277727621B730B6032710537
:1001A0000CF061C0121613066CF537014801062EDB
:1001B00004C096948794779467940A94D2F721E0C8
:1001C00030E040E050E004C0220F331F441F551FB1
:1001D0006A95D2F721503040404050402E213F21B7
:1001E00040235123211531054105510521F021E01E
:1001F00030E040E050E079018A01E628F72808293C
:1002000019293CC0232BD1F1260E371E350146019A
:10021000062E04C096948794779467940A94D2F734
:1002200021E030E040E050E004C0220F331F441FC3
:10023000551F6A95D2F721503040404050402A2146
:100240003B214C215D21211531054105510521F04E
:1002500021E030E040E050E059016A01A628B728CB
:10026000C828D9280BC0821593052CF01C01AA249C
:10027000BB24650103C0EE24FF24870111969C91E5
:10028000D20111968C91981709F445C0992339F041
:10029000A80197012A193B094C095D0906C0A6016E
:1002A00095012E193F09400B510B57FD08C01182D3
:1002B0003382228224833583468357831DC081E0A5
:1002C00081833382228288279927DC01821B930B4A
:1002D000A40BB50B84839583A683B7830DC0220F2F
:1002E000331F441F551F24833583468357838281E0
:1002F000938101979383828324813581468157813D
:10030000DA01C9010197A109B1098F5F9F4FAF4F72
:10031000BF4328F30BC0918333822282EA0CFB1C7B
:100320000C1D1D1DE482F5820683178383E0808304
:10033000248135814681578157FF1AC0C901AA27F8
:1003400097FDA095BA2F81709070A070B0705695EF
:10035000479537952795822B932BA42BB52B848318
:100360009583A683B7838281938101969383828349
:10037000DF0101C0D201CD01CDB7DEB7E2E10C94BF
:10038000231CA0E2B0E0E7ECF1E00C94131C6983BD
:100390007A838B839C832D833E834F835887E9E048
:1003A000EE2EF12CEC0EFD1ECE010196B7010E943F
:1003B00046068E010F5E1F4FCE010596B8010E94C2
:1003C00046068A8991E089278A8BC701B801AE0168
:1003D000475E5F4F0E9475000E947105A096E6E09F
:1003E0000C942F1CA0E2B0E0E8EFF1E00C94131C99
:1003F00069837A838B839C832D833E834F835887C5
:10040000F9E0EF2EF12CEC0EFD1ECE010196B701A6
:100410000E9446068E010F5E1F4FCE010596B80161
:100420000E944606C701B801AE01475E5F4F0E94B9
:1004300075000E947105A096E6E00C942F1CA0E2C6
:10044000B0E0E5E2F2E00C94071C69837A838B83C9
:100450009C832D833E834F835887CE010196BE0136
:10046000675F7F4F0E944606CE010596BE016F5E14
:100470007F4F0E9446069985923088F089898230A4
:10048000C8F0943019F4823051F404C0843029F457
:10049000923081F486E591E0C6C0923049F420E0C4
:1004A0009A858A89981321E02A87CE010996BBC0D4
:1004B000823049F420E09A858A89981321E02A8BBA
:1004C000CE014196B0C02D843E844F8458886D88FB
:1004D0007E888F88988CEE24FF248701AA24BB2471
:1004E000650140E050E060E070E0E0E0F0E0C10174
:1004F00081709070892BE9F0E60CF71C081D191D1E
:100500009A01AB012A0D3B1D4C1D5D1D80E090E062
:10051000A0E0B0E0E614F7040805190520F481E036
:1005200090E0A0E0B0E0BA01A901480F591F6A1F8E
:100530007B1FAA0CBB1CCC1CDD1C97FE08C081E0F5
:1005400090E0A0E0B0E0A82AB92ACA2ADB2A3196B6
:10055000E032F10549F0660C771C881C991C569412
:10056000479437942794C3CFFA85EA892B893C892D
:100570008B859C85280F391F2E5F3F4F17C0CA01FE
:1005800081709070892B61F016950795F794E79428
:1005900080E090E0A0E0B0E8E82AF92A0A2B1B2BC3
:1005A00076956795579547952F5F3F4F77FDE7CF36
:1005B0000CC0440F551F661F771F17FD4160EE0CDE
:1005C000FF1C001F111F21503040403090E05907A0
:1005D00090E0690790E4790760F32B8F3C8FDB0193
:1005E000CA018F779070A070B07080349105A1051A
:1005F000B10561F447FD0AC0E114F10401051105DC
:1006000029F0405C5F4F6F4F7F4F40781A8EFE1786
:1006100011F081E08A8F4D8F5E8F6F8F78A383E01A
:10062000898FCE0149960E947105A096E2E10C9453
:10063000231CA8E1B0E0EFE1F3E00C940F1C698308
:100640007A838B839C832D833E834F835887B9E0C5
:10065000EB2EF12CEC0EFD1ECE010196B7010E948F
:1006600046068E010F5E1F4FCE010596B8010E940F
:1006700046062985223008F47EC03989323010F4CC
:10068000B8017CC08A859A8989278A87243011F02D
:10069000223031F4231709F06EC066E571E06EC0B8
:1006A000343039F41D861E861F86188A1C861B86E8
:1006B00004C0323021F484E08987B7015FC02B8504
:1006C0003C858B899C89281B390B3C872B87ED84C3
:1006D000FE840F851889AD88BE88CF88D88CEA142F
:1006E000FB040C051D0540F4EE0CFF1C001F111F40
:1006F000215030403C872B8720E030E040E050E044
:1007000080E090E0A0E0B0E460E070E0EA14FB0478
:100710000C051D0540F0282B392B4A2B5B2BEA18C2
:10072000FB080C091D09B695A79597958795EE0CC2
:10073000FF1C001F111F6F5F7F4F6F31710531F775
:10074000DA01C9018F779070A070B0708034910584
:10075000A105B10561F427FD0AC0E114F10401050A
:10076000110529F0205C3F4F4F4F5F4F20782D87B8
:100770003E874F87588BBE01675F7F4FCB010E943A
:1007800071056896EAE00C942B1CA8E1B0E0EBEC54
:10079000F3E00C94131C69837A838B839C832D83F1
:1007A0003E834F83588789E0E82EF12CEC0EFD1E26
:1007B000CE010196B7010E9446068E010F5E1F4FC3
:1007C000CE010596B8010E9446068985823040F028
:1007D0008989823028F0C701B8010E94BE0601C095
:1007E0008FEF6896E6E00C942F1CA8E1B0E0EBEFE9
:1007F000F3E00C94131C69837A838B839C832D8391
:100800003E834F83588789E0E82EF12CEC0EFD1EC5
:10081000CE010196B7010E9446068E010F5E1F4F62
:10082000CE010596B8010E9446068985823040F0C7
:100830008989823028F0C701B8010E94BE0601C034
:100840008FEF6896E6E00C942F1CA8E1B0E0EBE295
:10085000F4E00C94131C69837A838B839C832D832F
:100860003E834F83588789E0E82EF12CEC0EFD1E65
:10087000CE010196B7010E9446068E010F5E1F4F02
:10088000CE010596B8010E9446068985823040F067
:100890008989823028F0C701B8010E94BE0601C0D4
:1008A00081E06896E6E00C942F1CACE0B0E0EBE54C
:1008B000F4E00C94171C69837A838B839C83CE01AC
:1008C0000196BE016B5F7F4F0E9446068D8182308C
:1008D00061F1823050F1843021F48E81882351F10E
:1008E0002EC02F81388537FD20C06E812F31310514
:1008F0001CF06623F9F023C08EE190E0821B930B7D
:1009000029853A854B855C8504C056954795379572
:1009100027958A95D2F76623B1F05095409530958A
:1009200021953F4F4F4F5F4F0EC020E030E040E039
:1009300050E009C02FEF3FEF4FEF5FE704C020E02A
:1009400030E040E050E8B901CA012C96E2E00C9496
:10095000331CA8E0B0E0EFEAF4E00C940F1C7B013C
:100960008C01611571058105910519F482E0898377
:1009700060C083E089838EE1C82ED12CDC82CB82DB
:10098000ED82FE820F831887C801B7010E942205FD
:10099000FC013197F7FF3BC0222733272E1B3F0B6B
:1009A00057016801022E04C0D694C794B794A79447
:1009B0000A94D2F740E050E060E070E081E090E01F
:1009C000A0E0B0E004C0880F991FAA1FBB1F2A95A2
:1009D000D2F70197A109B1098E219F21A023B1234C
:1009E0000097A105B10521F041E050E060E070E022
:1009F0004A295B296C297D294D835E836F83788723
:100A00008EE190E08E1B9F0B9C838B8312C03097EE
:100A100081F00E2E04C0EE0CFF1C001F111F0A9463
:100A2000D2F7ED82FE820F831887CE1ADF0ADC82AE
:100A3000CB821A82CE0101960E9471052896EAE0C7
:100A40000C942B1CEF92FF920F931F937B018C0150
:100A500080E0E81680E0F80681E0080780E01807EB
:100A600088F48FEFE816F1040105110531F028F044
:100A700088E090E0A0E0B0E017C080E090E0A0E067
:100A8000B0E012C080E0E81680E0F80680E00807D9
:100A900081E0180728F088E190E0A0E0B0E004C011
:100AA00080E190E0A0E0B0E020E230E040E050E003
:100AB000281B390B4A0B5B0B04C016950795F7945E
:100AC000E7948A95D2F7F701E25AFE4F8081281BFE
:100AD000310941095109C9011F910F91FF90EF9010
:100AE0000895DF92EF92FF920F931F93FC01E48031
:100AF000F58006811781D1808081823048F480E0C2
:100B000090E0A0E1B0E0E82AF92A0A2B1B2BA5C04F
:100B1000843009F49FC0823021F4EE24FF24870141
:100B200005C0E114F1040105110519F4E0E0F0E05D
:100B300096C0628173819FEF623879070CF05BC0C9
:100B400022E83FEF261B370B2A3131052CF020E03D
:100B500030E040E050E02AC0B801A701022E04C0F6
:100B600076956795579547950A94D2F781E090E07E
:100B7000A0E0B0E004C0880F991FAA1FBB1F2A95F0
:100B8000D2F70197A109B1098E219F21A023B1239A
:100B90000097A105B10521F081E090E0A0E0B0E070
:100BA0009A01AB01282B392B4A2B5B2BDA01C901A7
:100BB0008F779070A070B07080349105A105B10559
:100BC00039F427FF09C0205C3F4F4F4F5F4F04C0EF
:100BD000215C3F4F4F4F5F4FE0E0F0E02030A0E05E
:100BE0003A07A0E04A07A0E45A0710F0E1E0F0E07D
:100BF00079018A0127C06038710564F5FB01E1586D
:100C0000FF4FD801C7018F779070A070B07080340B
:100C10009105A105B10539F4E7FE0DC080E490E02F
:100C2000A0E0B0E004C08FE390E0A0E0B0E0E80E08
:100C3000F91E0A1F1B1F17FF05C016950795F7948D
:100C4000E794319687E016950795F794E7948A958F
:100C5000D1F705C0EE24FF248701EFEFF0E06E2FFF
:100C6000679566276795902F9F77D794DD24D79453
:100C70008E2F8695492F462B582F5D29B701CA0123
:100C80001F910F91FF90EF90DF900895FC01DB0121
:100C9000408151812281622F6F7770E0221F2227CD
:100CA000221F9381892F880F822B282F30E0991FD4
:100CB0009927991F11969C93119721153105A9F534
:100CC000411551056105710511F482E037C082E8D4
:100CD0009FEF13969C938E9312979A01AB0167E056
:100CE000220F331F441F551F6A95D1F783E08C9361
:100CF0000DC0220F331F441F551F12968D919C91DA
:100D00001397019713969C938E931297203080E04F
:100D1000380780E0480780E4580758F314962D936D
:100D20003D934D935C93179708952F3F310579F4C8
:100D3000411551056105710519F484E08C930895FE
:100D400064FF03C081E08C9312C01C9210C02F5727
:100D5000304013963C932E93129783E08C9387E058
:100D6000440F551F661F771F8A95D1F7706414963C
:100D70004D935D936D937C93179708951F93DC01BA
:100D8000FB019C91923008F447C08081823008F4C6
:100D900043C0943051F411961C91843099F58181AF
:100DA000682F70E0611B71093FC0843021F09230E0
:100DB00031F48230B9F18181882389F12DC01196F7
:100DC0001C9111978230F1F081811817D9F4129695
:100DD0002D913C911397828193818217930794F010
:100DE00028173907BCF014968D919D910D90BC91F8
:100DF000A02D2481358146815781281739074A075C
:100E00005B0718F4112341F00AC082179307A40767
:100E1000B50740F4112319F061E070E005C06FEFF1
:100E20007FEF02C060E070E0CB011F910895DF9377
:100E3000CF9300D00F92CDB7DEB70E942D0B0E944A
:100E4000E60C89838981282F30E03B832A838A81BD
:100E50009B818331910509F44AC02A813B81243169
:100E6000310584F48A819B818131910539F12A8190
:100E70003B81223131052CF58A819B81803191059E
:100E8000D1F0DDCF2A813B812531310509F453C0F2
:100E90008A819B81853191050CF444C02A813B8174
:100EA0002432310509F45DC08A819B818532910528
:100EB00009F476C0C4CF0E94C50DC1CF0E94070DB2
:100EC000BECF0E94781980E690E060E041E00E9489
:100ED0005F198FE690E061E042E00E945F1982E0D6
:100EE0000E946B0E109276020E94070DA8CF0E94FE
:100EF000781980917602843019F40E94C50D9FCF35
:100F00008CE790E060E040E00E945F198DE890E09F
:100F100061E043E00E945F1982E00E946B0E0E9434
:100F2000C50D8DCF0E947819109276020E942B0E6B
:100F30000E94070D84CF0E94781987E990E060E055
:100F400042E00E945F1983EA90E060E041E00E9485
:100F50005F1982E00E946B0E109276020E94BC0D17
:100F60006ECF80917602843031F40E94781987E147
:100F70000E94EC0D64CF0E94781983EB90E060E052
:100F800041E00E945F1982EC90E061E040E00E9445
:100F90005F1982E00E946B0E87E10E94EC0D4FCF3B
:100FA00080917602843031F40E94781983E20E94A5
:100FB000EC0D45CF0E94781983EB90E060E041E0B2
:100FC0000E945F1982EC90E061E040E00E945F19AE
:100FD00082E00E946B0E83E20E94EC0D30CFDF9323
:100FE000CF9300D000D00F92CDB7DEB789836A834C
:100FF0004B838A81883008F0D5C08981843008F01D
:10100000D1C08981282F30E03D832C838C819D8144
:101010008130910509F443C02C813D812230310596
:101020002CF48C819D81009771F0BCC02C813D8196
:101030002230310509F45FC08C819D818330910598
:1010400009F485C0AFC08B818130A1F4AAE3B0E080
:10105000EAE3F0E08081482F8A81282F30E081E0A8
:1010600090E0022E02C0880F991F0A94E2F7842BA9
:101070008C9398C0AAE3B0E0EAE3F0E08081482FC7
:101080008A81282F30E081E090E0022E02C0880F94
:10109000991F0A94E2F7809584238C9383C08B81F7
:1010A0008130A1F4A7E3B0E0E7E3F0E08081482FCE
:1010B0008A81282F30E081E090E0022E02C0880F64
:1010C000991F0A94E2F7842B8C936CC0A7E3B0E0DD
:1010D000E7E3F0E08081482F8A81282F30E081E02B
:1010E00090E0022E02C0880F991F0A94E2F78095C3
:1010F00084238C9357C08B818130A1F4A4E3B0E0AA
:10110000E4E3F0E08081482F8A81282F30E081E0FD
:1011100090E0022E02C0880F991F0A94E2F7842BF8
:101120008C9340C0A4E3B0E0E4E3F0E08081482F7A
:101130008A81282F30E081E090E0022E02C0880FE3
:10114000991F0A94E2F7809584238C932BC08B819E
:101150008130A1F4A1E3B0E0E1E3F0E08081482F29
:101160008A81282F30E081E090E0022E02C0880FB3
:10117000991F0A94E2F7842B8C9314C0A1E3B0E08A
:10118000E1E3F0E08081482F8A81282F30E081E080
:1011900090E0022E02C0880F991F0A94E2F7809512
:1011A00084238C930F900F900F900F900F90CF91FE
:1011B000DF910895DF93CF9300D000D00F92CDB789
:1011C000DEB789836A834B838A81883008F0D5C073
:1011D0008981843008F0D1C08981282F30E03D8397
:1011E0002C838C819D818130910509F443C02C8131
:1011F0003D81223031052CF48C819D81009771F066
:10120000BCC02C813D812230310509F45FC08C8146
:101210009D818330910509F485C0AFC08B818130F9
:10122000A1F4ABE3B0E0EBE3F0E08081482F8A81EA
:10123000282F30E081E090E0022E02C0880F991F35
:101240000A94E2F7842B8C9398C0ABE3B0E0EBE315
:10125000F0E08081482F8A81282F30E081E090E003
:10126000022E02C0880F991F0A94E2F7809584230A
:101270008C9383C08B818130A1F4A8E3B0E0E8E3D4
:10128000F0E08081482F8A81282F30E081E090E0D3
:10129000022E02C0880F991F0A94E2F7842B8C93C8
:1012A0006CC0A8E3B0E0E8E3F0E08081482F8A81D9
:1012B000282F30E081E090E0022E02C0880F991FB5
:1012C0000A94E2F7809584238C9357C08B818130F8
:1012D000A1F4A5E3B0E0E5E3F0E08081482F8A8146
:1012E000282F30E081E090E0022E02C0880F991F85
:1012F0000A94E2F7842B8C9340C0A5E3B0E0E5E3C9
:10130000F0E08081482F8A81282F30E081E090E052
:10131000022E02C0880F991F0A94E2F78095842359
:101320008C932BC08B818130A1F4A2E3B0E0E2E387
:10133000F0E08081482F8A81282F30E081E090E022
:10134000022E02C0880F991F0A94E2F7842B8C9317
:1013500014C0A2E3B0E0E2E3F0E08081482F8A818C
:10136000282F30E081E090E0022E02C0880F991F04
:101370000A94E2F7809584238C930F900F900F903E
:101380000F900F90CF91DF910895DF93CF9300D00E
:1013900000D00F92CDB7DEB78A836B8319828B8121
:1013A000883008F084C08A81843008F080C08A8147
:1013B000282F30E03D832C834C815D8141305105E5
:1013C00079F18C819D818230910534F42C813D81AD
:1013D0002115310569F06BC04C815D8142305105AA
:1013E000B9F18C819D818330910509F449C05FC0BA
:1013F000E9E3F0E08081282F30E08B81882F90E0B6
:10140000A90102C0559547958A95E2F7CA018170F6
:101410009070882319F081E0898349C0198247C000
:10142000E6E3F0E08081282F30E08B81882F90E088
:10143000A90102C0559547958A95E2F7CA018170C6
:101440009070882319F081E0898331C019822FC000
:10145000E3E3F0E08081282F30E08B81882F90E05B
:10146000A90102C0559547958A95E2F7CA01817096
:101470009070882319F081E0898319C0198217C000
:10148000E0E3F0E08081282F30E08B81882F90E02E
:10149000A90102C0559547958A95E2F7CA01817066
:1014A0009070882319F081E0898301C019828981B5
:1014B0000F900F900F900F900F90CF91DF910895A4
:1014C000DF93CF9300D000D0CDB7DEB789836A8396
:1014D0008981843090F58981282F30E03C832B83EB
:1014E0008B819C8181309105D1F02B813C81223010
:1014F00031052CF48B819C81009761F01EC02B81FB
:101500003C812230310581F08B819C8183309105B3
:1015100081F013C0EAE3F0E08A8180830EC0E7E344
:10152000F0E08A81808309C0E4E3F0E08A8180836F
:1015300004C0E1E3F0E08A8180830F900F900F9068
:101540000F90CF91DF910895DF93CF9300D000D01B
:10155000CDB7DEB789836A838981843090F589812C
:10156000282F30E03C832B838B819C818130910537
:10157000D1F02B813C81223031052CF48B819C8170
:10158000009761F01EC02B813C812230310581F033
:101590008B819C818330910581F013C0EBE3F0E0F7
:1015A0008A8180830EC0E8E3F0E08A81808309C0ED
:1015B000E5E3F0E08A81808304C0E2E3F0E08A8121
:1015C00080830F900F900F900F90CF91DF9108952F
:1015D000DF93CF9300D000D0CDB7DEB78A831982D6
:1015E0008A81843090F58A81282F30E03C832B83D8
:1015F0008B819C8181309105D1F02B813C812230FF
:1016000031052CF48B819C81009761F01EC02B81E9
:101610003C812230310581F08B819C8183309105A2
:1016200081F013C0E9E3F0E0808189830EC0E6E336
:10163000F0E08081898309C0E3E3F0E08081898361
:1016400004C0E0E3F0E08081898389810F900F90EE
:101650000F900F90CF91DF910895DF93CF93CDB787
:10166000DEB72C970FB6F894DEBF0FBECDBFCE010C
:10167000019699878887EEE5F2E0FB87EA87F7E035
:10168000FC87EA85FB8500808A859B8501969B8780
:101690008A87E885F98500828885998501969987EA
:1016A00088879C8591509C87EC85EE2351F7CE016D
:1016B00001960E94961A0E9496178FE59EE00E945E
:1016C000841AAFE5B0E0EFE5F0E0808180688C93AC
:1016D0002C960FB6F894DEBF0FBECDBFCF91DF9131
:1016E0000895DF93CF93CDB7DEB760970FB6F89428
:1016F000DEBF0FBECDBF0E94781984ED90E00E943E
:10170000321881E065E00E945B181F868AC00E9443
:10171000AC0E888B03C00E94AC0E888B88898A30FF
:10172000D0F78F85882F90E0FC01E459FD4F888920
:1017300080838AE20E94E11380E090E0AAEFB3E4A4
:101740008B879C87AD87BE876B857C858D859E85C5
:1017500020E030E04AEF54E40E941F02DC01CB019C
:101760008F839887A987BA876F81788589859A85BD
:1017700020E030E040E85FE30E94250488232CF459
:1017800081E090E09E838D833FC06F81788589855D
:101790009A8520E03FEF4FE757E40E94C5031816F3
:1017A0004CF56B857C858D859E8520E030E040E2A0
:1017B00051E40E941F02DC01CB01BC01CD010E945B
:1017C0004900DC01CB019E838D830FC088EC90E043
:1017D0009C838B838B819C810197F1F79C838B8306
:1017E0008D819E8101979E838D838D819E8100973F
:1017F00069F714C06F81788589859A850E944900B0
:10180000DC01CB019E838D838D819E819A838983A8
:1018100089819A810197F1F79A8389838F858F5FF8
:101820008F878F85853008F472CF60960FB6F89455
:10183000DEBF0FBECDBFCF91DF910895DF93CF9371
:10184000CDB7DEB760970FB6F894DEBF0FBECDBF41
:101850000E94781984EE90E00E94321885EF90E0A3
:1018600061E040E00E945F191F868AC00E94AC0EB2
:10187000888B03C00E94AC0E888B88898A30D0F791
:101880008F85882F90E0FC01EF58FD4F8889808379
:101890008AE20E94E11380E090E0AAEFB3E48B8734
:1018A0009C87AD87BE876B857C858D859E8520E076
:1018B00030E04AEF54E40E941F02DC01CB018F8329
:1018C0009887A987BA876F81788589859A8520E06E
:1018D00030E040E85FE30E94250488232CF481E097
:1018E00090E09E838D833FC06F81788589859A853E
:1018F00020E03FEF4FE757E40E94C50318164CF570
:101900006B857C858D859E8520E030E040E251E44A
:101910000E941F02DC01CB01BC01CD010E944900E5
:10192000DC01CB019E838D830FC088EC90E09C830B
:101930008B838B819C810197F1F79C838B838D81B5
:101940009E8101979E838D838D819E81009769F78B
:1019500014C06F81788589859A850E944900DC01D1
:10196000CB019E838D838D819E819A83898389811A
:101970009A810197F1F79A8389838F858F5F8F878B
:101980008F85853008F472CF60960FB6F894DEBF6D
:101990000FBECDBFCF91DF910895DF93CF93CDB729
:1019A000DEB70E94411B8F3FE1F78CE692E065E0D5
:1019B0000E94B81B0E94411B8F3FE1F781E792E034
:1019C00065E00E94B81BCF91DF910895DF93CF931C
:1019D0000F92CDB7DEB78FEF0E942A1B0E94411BEA
:1019E000898389810F90CF91DF910895DF93CF9301
:1019F0000F92CDB7DEB789830E94411B8F3FE1F77D
:101A000089810E942A1B0F90CF91DF910895DF9367
:101A1000CF93CDB7DEB761970FB6F894DEBF0FBE98
:101A2000CDBF0E94781980E091E00E9432188EE0CC
:101A300091E061E040E00E945F190E94AC0E8F8748
:101A400080E090E0AAEFB3E48B879C87AD87BE87E8
:101A50006B857C858D859E8520E030E04AEF54E4DF
:101A60000E941F02DC01CB018F839887A987BA8768
:101A70006F81788589859A8520E030E040E85FE3D2
:101A80000E94250488232CF481E090E09E838D83BE
:101A90003FC06F81788589859A8520E03FEF4FE7C9
:101AA00057E40E94C50318164CF56B857C858D851F
:101AB0009E8520E030E040E251E40E941F02DC01FC
:101AC000CB01BC01CD010E944900DC01CB019E830A
:101AD0008D830FC088EC90E09C838B838B819C81ED
:101AE0000197F1F79C838B838D819E8101979E8363
:101AF0008D838D819E81009769F718C06F817885ED
:101B000089859A850E944900DC01CB019E838D83E3
:101B10008D819E819A83898389819A810197F1F7CA
:101B20009A83898303C00E94AC0E8F878F858B3286
:101B300019F08F858D32B9F78F85282F30E0398BDA
:101B4000288B888999898B32910531F028893989C8
:101B50002D32310529F007C087E10E94EC0D03C04A
:101B600083E20E94EC0D61960FB6F894DEBF0FBEC3
:101B7000CDBFCF91DF910895DF93CF93CDB7DEB77F
:101B80000E94C50DCF91DF910895DF93CF93CDB71C
:101B9000DEB7809176028F5F809376028091760225
:101BA000853071F40E944D0E109276020E94710BE6
:101BB0000E941E0C89E10E94F60C0E94CD0C09C007
:101BC0000E94710B0E941E0C89E10E94F60C0E947B
:101BD000CD0CCF91DF910895DF93CF9300D00F927A
:101BE000CDB7DEB78983809176028F5F80937602CE
:101BF00080917602853039F40E944D0E1092760263
:101C00000E94070D22C00E94710B8981282F30E0AD
:101C10003B832A838A819B818731910531F02A8118
:101C20003B812332310529F007C081E20E94F60C86
:101C300003C082E20E94F60C0E94411B8F3FE1F735
:101C40008CE692E065E00E94B81B0F900F900F9019
:101C5000CF91DF910895DF93CF93CDB7DEB70E9488
:101C600078198EE191E00E9432188FE00E946B0E8D
:101C70000E9478198EE291E00E94321883E00E945F
:101C80006B0E0E9478198FE391E00E9432188FE06A
:101C90000E946B0ECF91DF910895DF93CF93CDB764
:101CA000DEB70E94781980E591E060E045E00E948F
:101CB0005F198CE30E946B0ECF91DF910895DF9343
:101CC000CF93CDB7DEB7809177028F5F8093770295
:101CD000CF91DF910895DF93CF93CDB7DEB72C97E7
:101CE0000FB6F894DEBF0FBECDBF8F83CE01019635
:101CF00099878887E5E6F2E0FB87EA87F6E0FC87CC
:101D0000EA85FB8500808A859B8501969B878A876B
:101D1000E885F98500828885998501969987888765
:101D20009C8591509C87EC85EE2351F7CE0101965E
:101D30000E940B1A909177028F819817D9F7109211
:101D400077020E94611A2C960FB6F894DEBF0FBE80
:101D5000CDBFCF91DF910895DF93CF93CDB7DEB79D
:101D600060970FB6F894DEBF0FBECDBF188A08C0CB
:101D700080E0688940E00E94EF0788898F5F888B48
:101D800088898430A8F31F860BC08F85982F9C5FAD
:101D900080E0692F40E00E94EF078F858F5F8F877B
:101DA0008F85843090F3188AABC080E0688941E069
:101DB0000E94EF0780E0688940E00E94DA081F86F1
:101DC00022C08F85982F9C5F80E0692F0E94C509F3
:101DD0008823B1F48889882F90E0880F991F880F95
:101DE000991F982F8F85890F8F5F0E94850F6096AE
:101DF0000FB6F894DEBF0FBECDBFCF91DF9108952F
:101E00008F858F5F8F878F858430D8F280E06889D7
:101E100040E00E94EF0780E090E0A0EAB0E48B870A
:101E20009C87AD87BE876B857C858D859E8520E0F0
:101E300030E04AEF54E40E941F02DC01CB018F83A3
:101E40009887A987BA876F81788589859A8520E0E8
:101E500030E040E85FE30E94250488232CF481E011
:101E600090E09E838D833FC06F81788589859A85B8
:101E700020E03FEF4FE757E40E94C50318164CF5EA
:101E80006B857C858D859E8520E030E040E251E4C5
:101E90000E941F02DC01CB01BC01CD010E94490060
:101EA000DC01CB019E838D830FC088EC90E09C8386
:101EB0008B838B819C810197F1F79C838B838D8130
:101EC0009E8101979E838D838D819E81009769F706
:101ED00014C06F81788589859A850E944900DC014C
:101EE000CB019E838D838D819E819A838983898195
:101EF0009A810197F1F79A83898388898F5F888B0C
:101F00008889843008F451CF4ECFDF93CF9300D02F
:101F100000D0CDB7DEB78A8319828A81282F30E0BE
:101F20003C832B838B819C818830910509F470C0A0
:101F30002B813C81293031055CF58B819C8184307B
:101F4000910509F459C02B813C81253031059CF461
:101F50008B819C818230910509F448C02B813C81A2
:101F6000233031050CF045C08B819C818130910577
:101F700009F439C067C02B813C812630310509F452
:101F800041C08B819C81873091050CF03EC037C0E9
:101F90002B813C812C30310509F446C08B819C811A
:101FA0008D3091055CF42B813C812A303105B1F1F3
:101FB0008B819C818B309105A4F52DC02B813C81B8
:101FC0002E303105B9F18B819C818E3091057CF1E9
:101FD0002B813C812F30310579F18B819C818031BF
:101FE000910569F12FC087E089832EC088E089833D
:101FF0002BC089E0898328C08FE2898325C084E0D3
:10200000898322C085E089831FC086E089831CC044
:102010008AE2898319C081E0898316C082E08983BE
:1020200013C083E0898310C08DE289830DC08DE0E9
:1020300089830AC0198208C08DE3898305C08BE2B9
:10204000898302C08A81898389810F900F900F90C4
:102050000F90CF91DF9108950F931F93DF93CF934C
:10206000CDB7DEB7C156D0400FB6F894DEBF0FBE75
:10207000CDBFFE01EF59FF4F808381E060E040E07B
:102080000E94DA08FE01E35AFF4F80E090E0A0E0F2
:10209000B0E480839183A283B3838E01075A1F4FDC
:1020A000FE01E35AFF4F60817181828193812BEAA7
:1020B0003AEA4AE250E40E941F02DC01CB01F80137
:1020C00080839183A283B383FE01E75AFF4F60812F
:1020D00071818281938120E030E040E85FE30E94DB
:1020E0002504882334F4FE01E85AFF4F81E0808301
:1020F000E0C0FE01E75AFF4F6081718182819381C8
:1021000020E030E04FE753E40E94C50318160CF0BE
:10211000C0C0FE01E35AFF4F6081718182819381CB
:1021200020E030E04AE754E40E941903DC01CB01CF
:10213000FE01EC5AFF4F80839183A283B3838E010B
:10214000005B1F4FFE01EC5AFF4F6081718182815D
:10215000938120E030E04AEF54E40E941F02DC014A
:10216000CB01F80180839183A283B383FE01E05BFE
:10217000FF4F608171818281938120E030E040E8EF
:102180005FE30E942504882344F4FE01E25BFF4FD5
:1021900081E090E09183808364C0FE01E05BFF4FAB
:1021A000608171818281938120E03FEF4FE757E4A6
:1021B0000E94C50318160CF043C0FE01EC5AFF4FF5
:1021C000608171818281938120E030E040E251E4BE
:1021D0000E941F02DC01CB018E01025B1F4FBC017C
:1021E000CD010E944900DC01CB01F801918380837D
:1021F0001FC0FE01E45BFF4F88EC90E09183808379
:10220000FE01E45BFF4F808191810197F1F7FE01B0
:10221000E45BFF4F91838083DE01A25BBF4FFE0131
:10222000E25BFF4F80819181019711969C938E9381
:10223000FE01E25BFF4F808191810097D1F64BC098
:102240008E01025B1F4FFE01E05BFF4F60817181D9
:10225000828193810E944900DC01CB01F8019183C6
:102260008083DE01A65BBF4FFE01E25BFF4F8081F2
:10227000918111969C938E93FE01E65BFF4F8081C6
:1022800091810197F1F7FE01E65BFF4F9183808317
:1022900022C08E01085A1F4FFE01E75AFF4F60818E
:1022A0007181828193810E944900DC01CB01F80198
:1022B0008083DE01A75BBF4FFE01E85AFF4F80819C
:1022C0008C93FE01E75BFF4F80818A95F1F7FE0159
:1022D000E75BFF4F808381E061E041E00E94DA0824
:1022E000FE01EB5BFF4F80E090E0A0E0B0E4808374
:1022F0009183A283B3838E010F5B1F4FFE01EB5BC3
:10230000FF4F60817181828193812BEA3AEA4AE230
:1023100050E40E941F02DC01CB01F801808391830D
:10232000A283B383FE01EF5BFF4F608171818281E5
:10233000938120E030E040E85FE30E942504882399
:1023400034F481E0FE01E05CFF4F80839DC0FE011C
:10235000EF5BFF4F608171818281938120E030E0EB
:102360004FE753E40E94C50318160CF07EC0FE012F
:10237000EB5BFF4F608171818281938120E030E0CF
:102380004AE754E40E941903DC01CB018CAF9DAFF6
:10239000AEAFBFAF6CAD7DAD8EAD9FAD20E030E098
:1023A0004AEF54E40E941F02DC01CB0188AF99AFD1
:1023B000AAAFBBAF68AD79AD8AAD9BAD20E030E090
:1023C00040E85FE30E94250488232CF481E090E03C
:1023D0009FAB8EAB3FC068AD79AD8AAD9BAD20E0C1
:1023E0003FEF4FE757E40E94C50318164CF56CAD5C
:1023F0007DAD8EAD9FAD20E030E040E251E40E9423
:102400001F02DC01CB01BC01CD010E944900DC01AF
:10241000CB019FAB8EAB0FC088EC90E09DAB8CAB3B
:102420008CA99DA90197F1F79DAB8CAB8EA99FA9B3
:1024300001979FAB8EAB8EA99FA9009769F72DC01E
:1024400068AD79AD8AAD9BAD0E944900DC01CB013E
:102450009FAB8EAB8EA99FA99BAB8AAB8AA99BA988
:102460000197F1F79BAB8AAB18C0FE01EF5BFF4F02
:1024700060817181828193810E944900DC01CB01DE
:10248000FE01E05CFF4F8083FE01E05CFF4F808136
:1024900089AB89A98A95F1F789ABFE01EF59FF4F06
:1024A00082E060810E94A40A80E090E0A0E0B0E4B5
:1024B0008DA79EA7AFA7B8AB6DA57EA58FA598A940
:1024C0002BEA3AEA4AE250E40E941F02DC01CB0107
:1024D00089A79AA7ABA7BCA769A57AA58BA59CA538
:1024E00020E030E040E85FE30E94250488231CF4EC
:1024F00081E088A791C069A57AA58BA59CA520E05D
:1025000030E04FE753E40E94C50318160CF07BC07F
:102510006DA57EA58FA598A920E030E04AE754E498
:102520000E941903DC01CB018CA39DA3AEA3BFA322
:102530006CA17DA18EA19FA120E030E04AEF54E480
:102540000E941F02DC01CB0188A399A3AAA3BBA30D
:1025500068A179A18AA19BA120E030E040E85FE377
:102560000E94250488232CF481E090E09F8F8E8FB9
:102570003FC068A179A18AA19BA120E03FEF4FE76E
:1025800057E40E94C50318164CF56CA17DA18EA1DD
:102590009FA120E030E040E251E40E941F02DC01F4
:1025A000CB01BC01CD010E944900DC01CB019F8F12
:1025B0008E8F0FC088EC90E09D8F8C8F8C8D9D8DC1
:1025C0000197F1F79D8F8C8F8E8D9F8D01979F8F37
:1025D0008E8F8E8D9F8D009769F724C068A179A199
:1025E0008AA19BA10E944900DC01CB019F8F8E8FA5
:1025F0008E8D9F8D9B8F8A8F8A8D9B8D0197F1F792
:102600009B8F8A8F0FC069A57AA58BA59CA50E9478
:102610004900DC01CB0188A788A5898F898D8A951F
:10262000F1F7898F81E061E040E00E94DA0880E004
:1026300090E0A0E0B0E48D8B9E8BAF8BB88F6D895E
:102640007E898F89988D2BEA3AEA4AE250E40E940B
:102650001F02DC01CB01898B9A8BAB8BBC8B698908
:102660007A898B899C8920E030E040E85FE30E9412
:10267000250488231CF481E0888B91C069897A89BC
:102680008B899C8920E030E04FE753E40E94C5032A
:1026900018160CF07BC06D897E898F89988D20E09B
:1026A00030E04AE754E40E941903DC01CB018C8737
:1026B0009D87AE87BF876C857D858E859F8520E051
:1026C00030E04AEF54E40E941F02DC01CB0188870E
:1026D0009987AA87BB87688579858A859B8520E04D
:1026E00030E040E85FE30E94250488232CF481E079
:1026F00090E09F838E833FC0688579858A859B851E
:1027000020E03FEF4FE757E40E94C50318164CF551
:102710006C857D858E859F8520E030E040E251E428
:102720000E941F02DC01CB01BC01CD010E944900C7
:10273000DC01CB019F838E830FC088EC90E09D83EA
:102740008C838C819D810197F1F79D838C838E8191
:102750009F8101979F838E838E819F81009769F768
:1027600024C0688579858A859B850E944900DC01A3
:10277000CB019F838E838E819F819B838A838A81F5
:102780009B810197F1F79B838A830FC069897A89BE
:102790008B899C890E944900DC01CB01888B888948
:1027A000898389818A95F1F78983CF59DF4F0FB6E5
:1027B000F894DEBF0FBECDBFCF91DF911F910F9177
:1027C00008950F931F93DF93CF93CDB7DEB7C15614
:1027D000D0400FB6F894DEBF0FBECDBFFE01EF595B
:1027E000FF4F808381E060E041E00E94DA08FE0153
:1027F000E35AFF4F80E090E0A0E0B0E48083918353
:10280000A283B3838E01075A1F4FFE01E35AFF4F85
:1028100060817181828193812BEA3AEA4AE250E435
:102820000E941F02DC01CB01F80180839183A28307
:10283000B383FE01E75AFF4F6081718182819381EA
:1028400020E030E040E85FE30E942504882334F470
:10285000FE01E85AFF4F81E08083E0C0FE01E75AA5
:10286000FF4F608171818281938120E030E04FE7EA
:1028700053E40E94C50318160CF0C0C0FE01E35AD1
:10288000FF4F608171818281938120E030E04AE7CF
:1028900054E40E941903DC01CB01FE01EC5AFF4F06
:1028A00080839183A283B3838E01005B1F4FFE015F
:1028B000EC5AFF4F608171818281938120E030E08A
:1028C0004AEF54E40E941F02DC01CB01F80180832F
:1028D0009183A283B383FE01E05BFF4F608171812E
:1028E0008281938120E030E040E85FE30E9425048C
:1028F000882344F4FE01E25BFF4F81E090E0918386
:10290000808364C0FE01E05BFF4F60817181828142
:10291000938120E03FEF4FE757E40E94C50318166C
:102920000CF043C0FE01EC5AFF4F6081718182813F
:10293000938120E030E040E251E40E941F02DC017C
:10294000CB018E01025B1F4FBC01CD010E944900EB
:10295000DC01CB01F801918380831FC0FE01E45BA1
:10296000FF4F88EC90E091838083FE01E45BFF4F92
:10297000808191810197F1F7FE01E45BFF4F918324
:102980008083DE01A25BBF4FFE01E25BFF4F8081CF
:102990009181019711969C938E93FE01E25BFF4F0C
:1029A000808191810097D1F64BC08E01025B1F4F51
:1029B000FE01E05BFF4F60817181828193810E9403
:1029C0004900DC01CB01F80191838083DE01A65B25
:1029D000BF4FFE01E25BFF4F8081918111969C9376
:1029E0008E93FE01E65BFF4F808191810197F1F7A5
:1029F000FE01E65BFF4F9183808322C08E01085A5F
:102A00001F4FFE01E75AFF4F6081718182819381E0
:102A10000E944900DC01CB01F8018083DE01A75B45
:102A2000BF4FFE01E85AFF4F80818C93FE01E75BA8
:102A3000FF4F80818A95F1F7FE01E75BFF4F8083AE
:102A400081E061E041E00E94DA08FE01EB5BFF4FAC
:102A500080E090E0A0E0B0E480839183A283B38320
:102A60008E010F5B1F4FFE01EB5BFF4F6081718199
:102A7000828193812BEA3AEA4AE250E40E941F02E3
:102A8000DC01CB01F80180839183A283B383FE0133
:102A9000EF5BFF4F608171818281938120E030E0A4
:102AA00040E85FE30E942504882334F481E0FE01BE
:102AB000E05CFF4F80839DC0FE01EF5BFF4F6081B4
:102AC00071818281938120E030E04FE753E40E94DE
:102AD000C50318160CF07EC0FE01EB5BFF4F608152
:102AE00071818281938120E030E04AE754E40E94C2
:102AF0001903DC01CB018CAF9DAFAEAFBFAF6CADA6
:102B00007DAD8EAD9FAD20E030E04AEF54E40E94F1
:102B10001F02DC01CB0188AF99AFAAAFBBAF68AD94
:102B200079AD8AAD9BAD20E030E040E85FE30E94E4
:102B3000250488232CF481E090E09FAB8EAB3FC04E
:102B400068AD79AD8AAD9BAD20E03FEF4FE757E42C
:102B50000E94C50318164CF56CAD7DAD8EAD9FADD2
:102B600020E030E040E251E40E941F02DC01CB0192
:102B7000BC01CD010E944900DC01CB019FAB8EABB3
:102B80000FC088EC90E09DAB8CAB8CA99DA9019700
:102B9000F1F79DAB8CAB8EA99FA901979FAB8EAB34
:102BA0008EA99FA9009769F72DC068AD79AD8AAD50
:102BB0009BAD0E944900DC01CB019FAB8EAB8EA97F
:102BC0009FA99BAB8AAB8AA99BA90197F1F79BAB05
:102BD0008AAB18C0FE01EF5BFF4F6081718182817B
:102BE00093810E944900DC01CB01FE01E05CFF4FB4
:102BF0008083FE01E05CFF4F808189AB89A98A95C3
:102C0000F1F789ABFE01EF59FF4F82E060810E942E
:102C1000A40A80E090E0A0E0B0E48DA79EA7AFA753
:102C2000B8AB6DA57EA58FA598A92BEA3AEA4AE232
:102C300050E40E941F02DC01CB0189A79AA7ABA731
:102C4000BCA769A57AA58BA59CA520E030E040E84B
:102C50005FE30E94250488231CF481E088A791C0CB
:102C600069A57AA58BA59CA520E030E04FE753E449
:102C70000E94C50318160CF07BC06DA57EA58FA51C
:102C800098A920E030E04AE754E40E941903DC01EF
:102C9000CB018CA39DA3AEA3BFA36CA17DA18EA1EC
:102CA0009FA120E030E04AEF54E40E941F02DC01C3
:102CB000CB0188A399A3AAA3BBA368A179A18AA1E8
:102CC0009BA120E030E040E85FE30E9425048823D8
:102CD0002CF481E090E09F8F8E8F3FC068A179A196
:102CE0008AA19BA120E03FEF4FE757E40E94C50374
:102CF00018164CF56CA17DA18EA19FA120E030E0BB
:102D000040E251E40E941F02DC01CB01BC01CD0175
:102D10000E944900DC01CB019F8F8E8F0FC088EC91
:102D200090E09D8F8C8F8C8D9D8D0197F1F79D8FFD
:102D30008C8F8E8D9F8D01979F8F8E8F8E8D9F8D07
:102D4000009769F724C068A179A18AA19BA10E947C
:102D50004900DC01CB019F8F8E8F8E8D9F8D9B8FC5
:102D60008A8F8A8D9B8D0197F1F79B8F8A8F0FC079
:102D700069A57AA58BA59CA50E944900DC01CB0121
:102D800088A788A5898F898D8A95F1F7898F81E039
:102D900061E040E00E94DA0880E090E0A0E0B0E46A
:102DA0008D8B9E8BAF8BB88F6D897E898F89988D27
:102DB0002BEA3AEA4AE250E40E941F02DC01CB010E
:102DC000898B9A8BAB8BBC8B69897A898B899C891F
:102DD00020E030E040E85FE30E94250488231CF4F3
:102DE00081E0888B91C069897A898B899C8920E0F0
:102DF00030E04FE753E40E94C50318160CF07BC087
:102E00006D897E898F89988D20E030E04AE754E40F
:102E10000E941903DC01CB018C879D87AE87BF8799
:102E20006C857D858E859F8520E030E04AEF54E4F7
:102E30000E941F02DC01CB0188879987AA87BB8784
:102E4000688579858A859B8520E030E040E85FE3EE
:102E50000E94250488232CF481E090E09F838E83D8
:102E60003FC0688579858A859B8520E03FEF4FE7E5
:102E700057E40E94C50318164CF56C857D858E8538
:102E80009F8520E030E040E251E40E941F02DC0117
:102E9000CB01BC01CD010E944900DC01CB019F8325
:102EA0008E830FC088EC90E09D838C838C819D8104
:102EB0000197F1F79D838C838E819F8101979F837A
:102EC0008E838E819F81009769F724C068857985FC
:102ED0008A859B850E944900DC01CB019F838E83FC
:102EE0008E819F819B838A838A819B810197F1F7E1
:102EF0009B838A830FC069897A898B899C890E9408
:102F00004900DC01CB01888B8889898389818A9576
:102F1000F1F78983CF59DF4F0FB6F894DEBF0FBEAC
:102F2000CDBFCF91DF911F910F910895DF93CF9384
:102F3000CDB7DEB72E970FB6F894DEBF0FBECDBF6C
:102F400081E060E041E00E94EF0781E061E041E064
:102F50000E94EF0780E090E0A0EAB1E48B879C87B5
:102F6000AD87BE876B857C858D859E8520E030E0B2
:102F70004AEF54E40E941F02DC01CB018F83988743
:102F8000A987BA876F81788589859A8520E030E0A6
:102F900040E85FE30E94250488232CF481E090E060
:102FA0009E838D833FC06F81788589859A8520E0D7
:102FB0003FEF4FE757E40E94C50318164CF56B85A9
:102FC0007C858D859E8520E030E040E251E40E94C2
:102FD0001F02DC01CB01BC01CD010E944900DC01D4
:102FE000CB019E838D830FC088EC90E09C838B8304
:102FF0008B819C810197F1F79C838B838D819E81CE
:1030000001979E838D838D819E81009769F714C0FF
:103010006F81788589859A850E944900DC01CB0102
:103020009E838D838D819E819A83898389819A81F4
:103030000197F1F79A83898382E06FEF0E94600A1B
:1030400088E30E942C108CE00E942C1081E00E94EA
:103050002C102E960FB6F894DEBF0FBECDBFCF91C9
:10306000DF910895DF93CF9300D00F92CDB7DEB7F5
:103070009B838A8319820EC08981282F30E08A8140
:103080009B81FC01E20FF31F80810E94E113898183
:103090008F5F89838981282F30E08A819B81FC01A1
:1030A000E20FF31F8081882339F70F900F900F9064
:1030B000CF91DF910895DF93CF93CDB7DEB76D97B2
:1030C0000FB6F894DEBF0FBECDBF8A8F6B8F8A8D8F
:1030D000282F30E03D8F2C8F8C8D9D8D8130910578
:1030E000C1F02C8D3D8D223031052CF48C8D9D8DC1
:1030F000009761F019C02C8D3D8D2230310569F0AB
:103100008C8D9D8D8330910561F00EC08B8D898FE4
:103110000BC08B8D805C898F07C08B8D805F898F02
:1031200003C08B8D805B898F898D80680E942C10F5
:1031300080E090E0A0E0B0E48D8B9E8BAF8BB88FE9
:103140006D897E898F89988D2BEA3AEA4AE250E4AC
:103150000E941F02DC01CB01898B9A8BAB8BBC8B4D
:1031600069897A898B899C8920E030E040E85FE3B7
:103170000E94250488231CF481E0888B91C0698912
:103180007A898B899C8920E030E04FE753E40E94E4
:10319000C50318160CF07BC06D897E898F89988DC8
:1031A00020E030E04AE754E40E941903DC01CB013F
:1031B0008C879D87AE87BF876C857D858E859F8533
:1031C00020E030E04AEF54E40E941F02DC01CB0112
:1031D00088879987AA87BB87688579858A859B8533
:1031E00020E030E040E85FE30E94250488232CF4CF
:1031F00081E090E09F838E833FC0688579858A85D2
:103200009B8520E03FEF4FE757E40E94C503181667
:103210004CF56C857D858E859F8520E030E040E211
:1032200051E40E941F02DC01CB01BC01CD010E94D0
:103230004900DC01CB019F838E830FC088EC90E0B6
:103240009D838C838C819D810197F1F79D838C8375
:103250008E819F8101979F838E838E819F810097AE
:1032600069F724C0688579858A859B850E94490015
:10327000DC01CB019F838E838E819F819B838A8318
:103280008A819B810197F1F79B838A830FC06989AB
:103290007A898B899C890E944900DC01CB01888B4B
:1032A0008889898389818A95F1F789836D960FB61C
:1032B000F894DEBF0FBECDBFCF91DF910895DF93AD
:1032C000CF9300D000D0CDB7DEB79A8389836B83CC
:1032D0004C838B816C810E945B1889819A810E944A
:1032E00032180F900F900F900F90CF91DF910895AB
:1032F000DF93CF93CDB7DEB781E00E942C10CF9142
:10330000DF910895DF93CF93CDB7DEB762970FB605
:10331000F894DEBF0FBECDBF9A8B898B89899A89BD
:103320009E012F5F3F4FB9014AE050E00E943E1CD2
:10333000CE0101960E94321862960FB6F894DEBF55
:103340000FBECDBFCF91DF9108951F920F920FB6A0
:103350000F9211242F933F934F935F936F937F931B
:103360008F939F93AF93BF93EF93FF93DF93CF938D
:10337000CDB7DEB78091780290917902009729F05D
:10338000E0917802F09179020995CF91DF91FF9158
:10339000EF91BF91AF919F918F917F916F915F91CD
:1033A0004F913F912F910F900FBE0F901F90189546
:1033B0001F920F920FB60F9211242F933F934F93AA
:1033C0005F936F937F938F939F93AF93BF93EF938D
:1033D000FF93DF93CF93CDB7DEB7809178029091C2
:1033E0007902009729F0E0917802F091790209952D
:1033F000CF91DF91FF91EF91BF91AF919F918F910D
:103400007F916F915F914F913F912F910F900FBEE0
:103410000F901F901895DF93CF9300D0CDB7DEB7F4
:103420009A838983ACE4B0E0E981FA818281938157
:1034300011969C938E93EFE4F0E088E08083E9811D
:10344000FA818081882379F4AEE4B0E0EEE4F0E024
:103450008081877F8C93A9E5B0E0E9E5F0E0808189
:1034600084608C931CC0E981FA8180818130B9F439
:10347000AAE4B0E0E981FA818481958111969C9358
:103480008E93AEE4B0E0EEE4F0E0808188608C934F
:10349000A9E5B0E0E9E5F0E0808180618C93AEE4DD
:1034A000B0E0EEE4F0E08081982F987FE981FA8126
:1034B00081818770892B8C930F900F90CF91DF9132
:1034C0000895DF93CF93CDB7DEB7ECE4F0E011823F
:1034D0001082EAE4F0E011821082EFE4F0E0108262
:1034E000EEE4F0E01082A9E5B0E0E9E5F0E08081EB
:1034F0008F7E8C93A9E5B0E0E9E5F0E080818B7FD9
:103500008C93CF91DF910895DF93CF9300D0CDB707
:10351000DEB79A83898389819A8190937902809317
:1035200078020F900F90CF91DF910895DF93CF93A2
:1035300000D000D0CDB7DEB79C838B83EBE2F0E008
:1035400082E08083EAE2F0E088E18083E0E4F0E07A
:1035500080E88083A0E4B0E0E0E4F0E08081282F00
:103560002F7CEB81FC818081882F90E083709070AC
:1035700082959295907F9827807F9827822B8C93B5
:10358000EB81FC818181882341F0A0E4B0E0E0E49C
:10359000F0E0808188608C9307C0A0E4B0E0E0E4B4
:1035A000F0E08081877F8C93A0E4B0E0E0E4F0E07D
:1035B0008081282F297FEB81FC818281882F90E0F8
:1035C00083709070880F991F822B8C93EB81FC8104
:1035D00083819481A581B681880F991FAA1FBB1F83
:1035E000880F991FAA1FBB1F880F991FAA1FBB1FF7
:1035F000BC01CD010E94A9049B01AC0160E074E212
:1036000084EF9AE40E941903DC01CB01BC01CD01D7
:1036100020E030E040E85FE30E94C101DC01CB0123
:10362000BC01CD010E944900DC01CB019A83898352
:10363000E0E4F0E089819A81892F99278083E9E28B
:10364000F0E0898180830F900F900F900F90CF91C1
:10365000DF910895DF93CF930F92CDB7DEB78983C3
:10366000EBE2F0E08081882F90E08072907000970C
:10367000B9F3ECE2F0E0898180830F90CF91DF9184
:103680000895DF93CF93CDB7DEB7EBE2F0E0808112
:103690008823DCF7ECE2F0E08081CF91DF910895A0
:1036A000DF93CF9300D00F92CDB7DEB79B838A8391
:1036B00019820EC08981282F30E08A819B81FC010C
:1036C000E20FF31F80810E942A1B89818F5F89830B
:1036D0008981282F30E08A819B81FC01E20FF31F52
:1036E0008081882339F780E40E942A1B0F900F9075
:1036F0000F90CF91DF9108950F931F93DF93CF9396
:1037000000D00F92CDB7DEB79B838A83198289815F
:10371000282F30E08A819B818C01020F131F0E94A9
:10372000411BF801808389818F5F89838981882F7C
:1037300090E09C01215030408A819B81FC01E20F86
:10374000F31F8081803419F78981882F90E09C01D4
:10375000215030408A819B81FC01E20FF31F1082CF
:103760000F900F900F90CF91DF911F910F910895BF
:10377000DF93CF9300D000D0CDB7DEB79B838A8391
:103780006C83198219820EC08981282F30E08A81CA
:103790009B81FC01E20FF31F80810E942A1B89811B
:1037A0008F5F898399818C81981770F30F900F90A8
:1037B0000F900F90CF91DF9108950F931F93DF9398
:1037C000CF9300D000D0CDB7DEB79B838A836C83C4
:1037D000198219820FC08981282F30E08A819B814C
:1037E0008C01020F131F0E94411BF8018083898105
:1037F0008F5F898399818C81981768F30F900F9060
:103800000F900F90CF91DF911F910F9108952F92FC
:103810003F924F925F926F927F928F929F92AF9260
:10382000BF92CF92DF92EF92FF920F931F93CF93AD
:10383000DF93CDB7DEB7CA1BDB0B0FB6F894DEBF44
:103840000FBECDBF09942A88398848885F846E846A
:103850007D848C849B84AA84B984C884DF80EE80B4
:10386000FD800C811B81AA81B981CE0FD11D0FB6BD
:10387000F894DEBF0FBECDBFED010895FB019F019F
:10388000E8944230C4F04532B4F44A3029F497FB4E
:103890001EF4909581959F4F642F77270E946F1C8F
:1038A000805D8A330CF0895D8193CB010097A1F78D
:1038B00016F45DE251931082C9010C945F1CDC0187
:1038C000FC01672F71917723E1F7329704C07C9157
:1038D0006D9370836291AE17BF07C8F30895AA1B5A
:1038E000BB1B51E107C0AA1FBB1FA617B70710F0EB
:1038F000A61BB70B881F991F5A95A9F7809590951D
:0A390000BC01CD010895F894FFCF3B
:10390A0050415353574F5244205341564544005354
:10391A0055434345535346554C4C59005041535314
:10392A00574F524420554E4D415443480054525922
:10393A0020414741494E0050415353574F5244206A
:10394A00495300434F52524543542057454C434F25
:10395A004D450050415353574F52442049534E2727
:10396A005400434F52524543542054525920414720
:10397A0041494E00706C7A20656E746572207061E0
:10398A0073733A00706C7A2072652D656E74657275
:10399A00207468650073616D6520706173733A0005
:1039AA002B203A204F70656E20446F6F72002D20D5
:1039BA003A204368616E67652050617373004F5007
:1039CA004E494E472054484520444F4F5200484FD5
:1039DA004C44494E472054484520444F4F520043D7
:1039EA004C4F53494E472054484520444F4F5200AC
:1039FA004552524F52000000000000000000000132
:103A0A000202030303030404040404040404050572
:103A1A00050505050505050505050505050506064A
:103A2A00060606060606060606060606060606062C
:103A3A00060606060606060606060606060607071A
:103A4A0007070707070707070707070707070707FC
:103A5A0007070707070707070707070707070707EC
:103A6A0007070707070707070707070707070707DC
:103A7A0007070707070707070707070707070808CA
:103A8A0008080808080808080808080808080808AC
:103A9A00080808080808080808080808080808089C
:103AAA00080808080808080808080808080808088C
:103ABA00080808080808080808080808080808087C
:103ACA00080808080808080808080808080808086C
:103ADA00080808080808080808080808080808085C
:103AEA00080808080808080808080808080808084C
:103AFA00080808080808080808080808080802004A
:0C3B0A00038025000001040000127A0076
:00000001FF
